S00E00006C6162615F322E73726563F5
S11300000C942A000C943C000C943C000C943C008E
S11300100C943C000C943C000C943C000C943C006C
S11300200C943C000C943C000C943C000C943C005C
S11300300C943C000C943C000C943C000C943C004C
S11300400C943C000C943C000C943C000C943C003C
S11300500C943C0011241FBECFE5D4E0DEBFCDBF1D
S113006020E0A0E6B0E001C01D92A136B207E1F79E
S11300700E94B6000C94F5000C940000D09AA09A4B
S1130080B89ADD9AAD9AC59A0895B59918C0A89AF8
S1130090D89A2FE78AE196E0215080409040E1F71A
S11300A000C00000A898D8982FE78AE196E0215074
S11300B080409040E1F700C00000B59BE8CF089570
S11300C01092600018BAB59925C091E0D89A2FE72C
S11300D038E381E0215030408040E1F700C0000067
S11300E0D8982FE738E381E0215030408040E1F791
S11300F000C0000080916000853029F485B3892711
S113010085BB10926000809160008F5F80936000D7
S1130110B59BDCCF089518BA10926000B59925C03C
S113012091E0A89A2FE738E381E0215030408040E5
S1130130E1F700C00000A8982FE738E381E02150E0
S113014030408040E1F700C00000809160008530BD
S113015029F48BB389278BBB1092600080916000D7
S11301608F5F80936000B59BDCCF08950E943E00B2
S113017018BA1BBA15BA88B388BB8BB38BBB85B3CB
S113018085BB13C0CD9B05C09D9B03C00E94450049
S11301900CC0CD9905C09D9B03C00E94600005C0A2
S11301A0CD9B03C09D9B0E948B00B59BEBCF2FEF93
S11301B084E39CE0215080409040E1F700C00000BF
S11301C0C09A0AC0CD9B03C00E94600007C09D9BDB
S11301D003C00E948B0002C0B59BF4CF8BB31BBA43
S11101E085B315BA88B318BAE0CFF894FFCFF0
S9030000FC
