:020000020000FC
:100000000C9406000C945C000C94640004E00EBF99
:100010000FE50DBF0CE003E005BF00EC0BBF00ECEB
:100020000ABF00E001BB04BB0FEF0ABB71E080E830
:10003000E1E095E0789465E507D02535B9F02A3AF6
:10004000F9F02F3F29F1F7CF33B3341731F030FDFA
:1000500005D031FD07D0432F089508952F3FE9F3D0
:10006000260F08952030C9F3255508951BD07BBB7A
:1000700019D0770F7BBB703809F0DDCF71E0DBCF93
:100080007AEA7BBB0FD075E57BBB0CD0DDDFD3CF2D
:1000900009D08BBB07D086958BBB813009F0CBCFC5
:1000A00080E8C9CFB92FC7E1D9E7DA95F1F7CA954A
:1000B000D9F7BA95C1F70895F8949F3019F09E0FBB
:1000C0007894189578941895F894903019F09E1BB0
:0800D0007894189578941895B6
:00000001FF
