:100000000C942A000C9434000C9434000C943400AA
:100010000C9434000C9434000C9434000C94340090
:100020000C9434000C9434000C9434000C94340080
:100030000C9434000C9434000C9434000C94340070
:100040000C9434000C9434000C9434000C94340060
:100050000C94340011241FBECFE5D4E0DEBFCDBF29
:100060000E9445000C945A000C9400008F9ABB9A91
:1000700085B5886485BD85B5816285BD83B7886493
:1000800083BF83B7816283BF08950E94360080E8F2
:1000900090E030E820E001C09F5F9CBF83BDEFECA3
:1000A000F7E03197F1F700C000008150A9F7832FE6
:0800B000922FF3CFF894FFCF6B
:00000001FF
