:100000000C942A000C9434000C9434000C943400AA
:100010000C9434000C9434000C9434000C94340090
:100020000C9434000C9434000C9434000C94340080
:100030000C9434000C9434000C9434000C94340070
:100040000C9434000C9434000C9434000C94340060
:100050000C94340011241FBECFE5D4E0DEBFCDBF29
:100060000E9445000C9468000C9400008F9ABB9A83
:1000700085B5886485BD85B5836285BD83B7886491
:1000800083BF83B7836283BF08950E9436009FEFCA
:1000900080E02FEF0CC08CBF93BDEFE0F7E231970B
:1000A000F1F700C000008F5F915001C0922F99239B
:1000B00091F78823D9F38CBF93BDEFE0F7E2319736
:1000C000F1F700C000009F5F8150A9F7922FEFCF9A
:0400D000F894FFCFD2
:00000001FF
