S00E00006C6162615F342E73726563F3
S11300000C942A000C943C000C943C000C943C008E
S11300100C943C000C943C000C943C000C943C006C
S11300200C945E000C943C000C943C000C943C003A
S11300300C943C000C943C000C943C000C943C004C
S11300400C943C000C943C000C943C000C943C003C
S11300500C943C0011241FBECFE5D4E0DEBFCDBF1D
S113006020E0A0E6B0E001C01D92A436B207E1F79B
S11300700E945B000C94A1000C940000D09AB89AE2
S113008083E389B910BC88E08AB986E880BD1ABACE
S113009083E08EBD84E089BF88BF8FEC8DBD8BE289
S11300A08CBD81E087BB789408955D9BFECF8CB9AD
S11300B01092620008950E943E00FFCF1F920F929B
S11300C00FB60F9211242F933F934F935F936F9327
S11300D07F938F939F93AF93BF93EF93FF93F89482
S11300E089B38093610090916000891729F0909101
S11300F063009F5F9093630080936000809162002F
S11301008E3129F48091630086950E945500809178
S113011062008F5F809362008FEC8DBD8BE28CBD9B
S1130120FF91EF91BF91AF919F918F917F916F91CB
S11301305F914F913F912F910F900FBE0F901F90A1
S10901401895F894FFCFAE
S9030000FC
