:100000000C942A000C9434000C9434000C943400AA
:100010000C9434000C9434000C9434000C94340090
:100020000C9434000C9434000C9434000C94340080
:100030000C9434000C9434000C9434000C94340070
:100040000C9434000C9434000C9434000C94340060
:100050000C94340011241FBECFE5D4E0DEBFCDBF29
:100060000E9439000C9450000C940000D09AD8984B
:1000700008950E943600D89A2FE78AE196E0215031
:1000800080409040E1F700C00000D8982FE78AE157
:1000900096E0215080409040E1F700C00000EBCF97
:0400A000F894FFCF02
:00000001FF
