:100000000C942A000C9447000C9447000C94470071
:100010000C9447000C9447000C9447000C94470044
:100020000C9447000C9447000C9447000C945A0021
:100030000C9447000C9447000C9447000C94470024
:100040000C9447000C9447000C9447000C94470014
:100050000C94470011241FBECFE5D4E0DEBFCDBF16
:1000600010E0A0E6B0E0E2E4F1E002C005900D92FD
:10007000AC36B107D9F720E0ACE6B0E001C01D9284
:10008000AF36B207E1F70E9457000C949F000C9422
:100090000000D09AB89A8091610080BD8091600084
:1000A00089B988ED8AB986E880BD789408950E9460
:1000B0004900FFCF1F920F920FB60F9211242F937A
:1000C0008F939F93EF93FF939CB190936E008091D9
:1000D0006C00E82FF0E0EE59FF4F2081921305C02D
:1000E00020916D002F5F20936D008F5F80936C00D7
:1000F0009D30D9F491E020916D00293009F090E015
:10010000992351F091E0893009F090E0992321F092
:1001100081E088BB1BBA03C018BA81E08BBB109288
:100120006D0010926C0010926E00FF91EF919F9104
:100130008F912F910F900FBE0F901F901895F894EC
:02014000FFCFEF
:0C014200190031323334353637380D00E7
:00000001FF
