:020000020000FC
:080000000C9412000C94360070
:100020000C94410004E00EBF0FE50DBF00E000BDE1
:1000300009E109B908E00AB906E800BD04E009BF12
:1000400008BF04E00EBD00E40BBF02E005BF26D0F0
:10005000829BFDCF0AE70DBD02E10CBD7894FFCF76
:100060007894FECF5D9BFECF0CB90895F894042FD1
:10007000F9DF032FF7DF30E340E30DE0F3DF78949F
:100080001895F894393339F033950AE70DBD02E13C
:100090000CBD7894189530E34395F7CF11EE2CEE14
:0A00A0002A95F1F71A95D9F7089593
:00000001FF
