:020000020000FC
:100000000C940600427574746F6E200004E00EBFFD
:100010000FE50DBF00E000BD03E309B90FEF0ABB18
:1000200008E00AB906E800BD7894E4E0F0E044276F
:1000300045D049B34517C9F370E361E3542F00C0BD
:1000400040FF60E31AD041FF60E317D042FF60E356
:1000500014D043FF60E311D044FF60E30ED045FFAE
:1000600060E30BD046FF60E308D047FF60E305D0B4
:1000700000E220D00DE01ED0D8CFE4E0F0E0059102
:10008000003011F017D0FBCF00E214D0072F12D0B0
:1000900000E210D00DE20ED000E20CD0062F0AD004
:1000A00000E208D0662700E205D0739561E30DE019
:1000B00001D008955D9BFECF0CB908951FE527E19F
:1000C00039E73A95F1F72A95D9F71A95C1F70895C6
:00000001FF
