:100000000C942A000C9447000C9447000C94470071
:100010000C9447000C9447000C9447000C94470044
:100020000C9447000C9447000C9447000C94470034
:100030000C9447000C9447000C9447000C94470024
:100040000C9447000C9447000C9447000C94470014
:100050000C94470011241FBECFE5D4E0DEBFCDBF16
:1000600010E0A0E6B0E0E6EFF1E002C005900D92EE
:10007000AE36B107D9F710E0AEE6B0E001C01D9290
:10008000A137B107E1F70E94DE000C94F9000C944F
:1000900000006F927F928F929F92AF92BF92CF9209
:1000A000DF92EF92FF920F931F93CF93DF9300E0C5
:1000B00010E00F2EFBEBCF2EF0E0DF2EF02D0F2EF9
:1000C000F0E6AF2EF0E0BF2EF02D0F2EF6EBEF2E68
:1000D000F0E0FF2EF02D0F2EF8E68F2EF0E09F2E91
:1000E000F02D01C08E01E80121969E01205D209334
:1000F0007000C501F601099537018091700090E00C
:10010000F7010995C401F601099589B390E09C01B6
:1001100002C0359527950A95E2F720FF05C081E3D7
:1001200090E0F701099504C080E390E0F70109959C
:100130008DE090E0F7010995C830D10599F68DE082
:1001400090E0F301099585E19DECF3010995DF91BC
:10015000CF911F910F91FF90EF90DF90CF90BF90C4
:10016000AF909F908F907F906F9008959BB195FF77
:10017000FDCF8CB90895CF93DF93EC01888188235C
:1001800031F021960E94B60089918823D9F7DF913A
:10019000CF9108951ABA81E084BB80916D0080BD33
:1001A00080916C0089B988E08AB986E880BD89B3FE
:1001B00080936E0089B380936F0008951F9311E0C0
:1001C0000E94CA0089B380936E0090916F008917D6
:1001D00041F489B380936E0015BA90916F0089172E
:1001E000C1F315BB80916E0080936F000E9449009F
:0601F000E7CFF894FFCFF9
:0E01F600427574746F6E2000202D20001900D9
:00000001FF
