:100000000C942A000C9434000C9434000C943400AA
:100010000C9434000C9434000C9434000C94340090
:100020000C9434000C9434000C9434000C94340080
:100030000C9434000C9434000C9434000C94340070
:100040000C9434000C9434000C9434000C94340060
:100050000C94340011241FBECFE5D4E0DEBFCDBF29
:100060000E9443000C944A000C94000084B384BBAB
:1000700081B381BB85B3836085BB82B38C6082BB57
:100080008FEF8ABB08950E94360000000000000038
:080090000000FFCFF894FFCF40
:00000001FF
