:020000020000FC
:040000000C945A0002
:10002C000C9496006162636465666768696A6B6CC0
:10003C006D6E6F707172737475767778797A4142E0
:10004C00434445464748494A4B4C4D4E4F505152FC
:10005C00535455565758595AE0E1E2E3E4E5B8E6F3
:10006C00E7E8E9EAEBECEDEEEFF0F1F2F3F4F5F69C
:10007C00F7F8F9FAFBFCFDFEFFC0C1C2C3C4C5A86A
:10008C00C6C7C8C9CACBCCCDCECFD0D1D2D3D4D58C
:10009C00D6D7D8D9DADBDCDDDEDF00003031323305
:1000AC00343536373839000004E00EBF0FE50DBF8C
:1000BC0000E000BD0FEC09B908E90AB906E800BD7B
:1000CC0003E00ABB7894FFCF222711D018D0203040
:1000DC0009F0089503E00BBB2AD000E00BBB27D03E
:1000EC0003E00BBB24D000E00BBB21D00895E0E370
:1000FC00F0E00591003059F0101751F0FACFE8EA12
:10010C00F0E00591003019F0101731F0FACF089596
:10011C00D89AD99823950895D99AD8982395089563
:10012C00F8945F9BFDCF1CB1CFDF7894189514E247
:10013C002CEB34EC3A95F1F72A95D9F71A95C1F7CF
:02014C00089514
:00000001FF
