:020000020000FC
:040000000C94230039
:10002C000C94700068656C6C6F20776F726C640058
:10003C00486900004572726F720004E00EBF0FE554
:10004C000DBF00E000BD09E109B90FEF0ABB07BB0A
:10005C0008E90AB906E800BD7894E0E3F0E021E095
:10006C0033277894FFCF1D30B1F00591213031F05A
:10007C00273049F0101761F023950895183641F098
:10008C00183431F00895173719F0173509F0089521
:10009C003395239508953B3009F00AC02C3009F0B4
:1000AC0007C0ECE3F0E00591003049F00FD0FBCF36
:1000BC00E0E4F0E00591003011F008D0FBCF0DE04A
:1000CC0005D0E0E3F0E021E0332708955D9BFECFFF
:1000DC000CB90895F8945F9BFDCF1CB1C4DF7894E4
:0200EC00189565
:00000001FF
