:020000020000FC
:040000000C941C0040
:04002C000C945100DF
:100034000C94590004E00EBF0FE50DBF00E000BDB5
:1000440003E309B90FEF0ABB08ED0AB906E800BDDE
:100054007894FFCF113399F0123389F0133379F088
:10006400143369F0153359F0163349F0173339F066
:10007400183329F0193319F0103309F003C0105361
:100084001BBB08950FEF0BBB18D000E00BBB15D0C2
:100094000FEF0BBB12D000E00BBB0FD00895F89408
:1000A4005F9BFDCF1CB10FEF0BBB78941895F894B0
:1000B4005D9BFDCF11277894189514E22CEB34EC5A
:0E00C4003A95F1F72A95D9F71A95C1F70895E4
:00000001FF
